{
  "contractName": "someSeriousStuff",
  "abi": [
    {
      "constant": false,
      "inputs": [
        {
          "name": "_NylId",
          "type": "uint256"
        },
        {
          "name": "_amount",
          "type": "uint256"
        },
        {
          "name": "_from",
          "type": "uint256"
        },
        {
          "name": "_to",
          "type": "uint256"
        }
      ],
      "name": "makeRequest",
      "outputs": [],
      "payable": false,
      "stateMutability": "nonpayable",
      "type": "function"
    },
    {
      "constant": false,
      "inputs": [],
      "name": "getRequestCount",
      "outputs": [
        {
          "name": "",
          "type": "uint256"
        }
      ],
      "payable": false,
      "stateMutability": "nonpayable",
      "type": "function"
    },
    {
      "constant": false,
      "inputs": [
        {
          "name": "id",
          "type": "uint256"
        }
      ],
      "name": "getSingleClientId",
      "outputs": [
        {
          "name": "",
          "type": "uint256"
        }
      ],
      "payable": false,
      "stateMutability": "nonpayable",
      "type": "function"
    },
    {
      "constant": false,
      "inputs": [],
      "name": "getClientCount",
      "outputs": [
        {
          "name": "",
          "type": "uint256"
        }
      ],
      "payable": false,
      "stateMutability": "nonpayable",
      "type": "function"
    },
    {
      "constant": true,
      "inputs": [],
      "name": "currentStage",
      "outputs": [
        {
          "name": "",
          "type": "uint8"
        }
      ],
      "payable": false,
      "stateMutability": "view",
      "type": "function"
    },
    {
      "constant": false,
      "inputs": [
        {
          "name": "requestId",
          "type": "uint256"
        }
      ],
      "name": "viewRequestAtNyl",
      "outputs": [
        {
          "name": "",
          "type": "uint256"
        },
        {
          "name": "",
          "type": "string"
        },
        {
          "name": "",
          "type": "uint256"
        },
        {
          "name": "",
          "type": "uint256"
        },
        {
          "name": "",
          "type": "uint256"
        },
        {
          "name": "",
          "type": "bool"
        },
        {
          "name": "",
          "type": "bool"
        }
      ],
      "payable": false,
      "stateMutability": "nonpayable",
      "type": "function"
    },
    {
      "constant": true,
      "inputs": [
        {
          "name": "",
          "type": "uint256"
        }
      ],
      "name": "requests",
      "outputs": [
        {
          "name": "",
          "type": "uint256"
        }
      ],
      "payable": false,
      "stateMutability": "view",
      "type": "function"
    },
    {
      "constant": false,
      "inputs": [
        {
          "name": "_NylId",
          "type": "uint256"
        }
      ],
      "name": "viewUser",
      "outputs": [
        {
          "name": "",
          "type": "string"
        },
        {
          "name": "",
          "type": "string"
        },
        {
          "name": "",
          "type": "uint256"
        },
        {
          "name": "",
          "type": "string"
        },
        {
          "name": "",
          "type": "uint256"
        }
      ],
      "payable": false,
      "stateMutability": "nonpayable",
      "type": "function"
    },
    {
      "constant": true,
      "inputs": [],
      "name": "owner",
      "outputs": [
        {
          "name": "",
          "type": "address"
        }
      ],
      "payable": false,
      "stateMutability": "view",
      "type": "function"
    },
    {
      "constant": false,
      "inputs": [
        {
          "name": "requestId",
          "type": "uint256"
        }
      ],
      "name": "getSingleRequest",
      "outputs": [
        {
          "name": "",
          "type": "uint256"
        },
        {
          "name": "",
          "type": "uint256"
        },
        {
          "name": "",
          "type": "uint256"
        },
        {
          "name": "",
          "type": "uint256"
        },
        {
          "name": "",
          "type": "bool"
        },
        {
          "name": "",
          "type": "bool"
        }
      ],
      "payable": false,
      "stateMutability": "nonpayable",
      "type": "function"
    },
    {
      "constant": false,
      "inputs": [
        {
          "name": "requestId",
          "type": "uint256"
        },
        {
          "name": "approved",
          "type": "bool"
        }
      ],
      "name": "approveRequestByNYL",
      "outputs": [],
      "payable": false,
      "stateMutability": "nonpayable",
      "type": "function"
    },
    {
      "constant": true,
      "inputs": [
        {
          "name": "",
          "type": "uint256"
        }
      ],
      "name": "clientArray",
      "outputs": [
        {
          "name": "",
          "type": "uint256"
        }
      ],
      "payable": false,
      "stateMutability": "view",
      "type": "function"
    },
    {
      "constant": true,
      "inputs": [],
      "name": "currentStageTime",
      "outputs": [
        {
          "name": "",
          "type": "uint256"
        }
      ],
      "payable": false,
      "stateMutability": "view",
      "type": "function"
    },
    {
      "constant": false,
      "inputs": [
        {
          "name": "requestId",
          "type": "uint256"
        },
        {
          "name": "approved",
          "type": "bool"
        }
      ],
      "name": "approveRequestByFidelity",
      "outputs": [],
      "payable": false,
      "stateMutability": "nonpayable",
      "type": "function"
    },
    {
      "constant": false,
      "inputs": [
        {
          "name": "NylId",
          "type": "uint256"
        },
        {
          "name": "_name",
          "type": "string"
        }
      ],
      "name": "registerNewUser",
      "outputs": [
        {
          "name": "success",
          "type": "bool"
        }
      ],
      "payable": false,
      "stateMutability": "nonpayable",
      "type": "function"
    },
    {
      "inputs": [],
      "payable": false,
      "stateMutability": "nonpayable",
      "type": "constructor"
    }
  ],
  "bytecode": "0x60606040526001600655426008556000600960006101000a81548160ff0219169083600281111561002c57fe5b0217905550341561003c57600080fd5b336000806101000a81548173ffffffffffffffffffffffffffffffffffffffff021916908373ffffffffffffffffffffffffffffffffffffffff1602179055506113478061008b6000396000f3006060604052600436106100db576000357c0100000000000000000000000000000000000000000000000000000000900463ffffffff168063157ffefa146100e05780633fad18341461011e578063584cae08146101475780635a81018a1461017e5780635bf5d54c146101a75780636cfcc602146101de57806381d12c58146102ac57806382f27c12146102e35780638da5cb5b14610465578063bdfd66af146104ba578063bffca7c51461051c578063cc52f6d51461054a578063dd16df7c14610581578063f8a6c52d146105aa578063fb24a703146105d8575b600080fd5b34156100eb57600080fd5b61011c6004808035906020019091908035906020019091908035906020019091908035906020019091905050610656565b005b341561012957600080fd5b610131610797565b6040518082815260200191505060405180910390f35b341561015257600080fd5b61016860048080359060200190919050506107a4565b6040518082815260200191505060405180910390f35b341561018957600080fd5b6101916107c8565b6040518082815260200191505060405180910390f35b34156101b257600080fd5b6101ba6107d5565b604051808260028111156101ca57fe5b60ff16815260200191505060405180910390f35b34156101e957600080fd5b6101ff60048080359060200190919050506107e8565b60405180888152602001806020018781526020018681526020018581526020018415151515815260200183151515158152602001828103825288818151815260200191508051906020019080838360005b8381101561026b578082015181840152602081019050610250565b50505050905090810190601f1680156102985780820380516001836020036101000a031916815260200191505b509850505050505050505060405180910390f35b34156102b757600080fd5b6102cd6004808035906020019091905050610975565b6040518082815260200191505060405180910390f35b34156102ee57600080fd5b6103046004808035906020019091905050610999565b60405180806020018060200186815260200180602001858152602001848103845289818151815260200191508051906020019080838360005b8381101561035857808201518184015260208101905061033d565b50505050905090810190601f1680156103855780820380516001836020036101000a031916815260200191505b50848103835288818151815260200191508051906020019080838360005b838110156103be5780820151818401526020810190506103a3565b50505050905090810190601f1680156103eb5780820380516001836020036101000a031916815260200191505b50848103825286818151815260200191508051906020019080838360005b83811015610424578082015181840152602081019050610409565b50505050905090810190601f1680156104515780820380516001836020036101000a031916815260200191505b509850505050505050505060405180910390f35b341561047057600080fd5b610478610c60565b604051808273ffffffffffffffffffffffffffffffffffffffff1673ffffffffffffffffffffffffffffffffffffffff16815260200191505060405180910390f35b34156104c557600080fd5b6104db6004808035906020019091905050610c85565b604051808781526020018681526020018581526020018481526020018315151515815260200182151515158152602001965050505050505060405180910390f35b341561052757600080fd5b61054860048080359060200190919080351515906020019091905050610cf3565b005b341561055557600080fd5b61056b6004808035906020019091905050610d75565b6040518082815260200191505060405180910390f35b341561058c57600080fd5b610594610d99565b6040518082815260200191505060405180910390f35b34156105b557600080fd5b6105d660048080359060200190919080351515906020019091905050610d9f565b005b34156105e357600080fd5b61063c600480803590602001909190803590602001908201803590602001908080601f01602080910402602001604051908101604052809392919081815260200183838082843782019150505050505091905050610f06565b604051808215151515815260200191505060405180910390f35b61065e61117b565b600084600260008881526020019081526020016000206001018560028110151561068457fe5b6002020160010154031015151561069a57600080fd5b60c060405190810160405280868152602001858152602001848152602001838152602001600015158152602001600015158152509050806005600060065481526020019081526020016000206000820151816000015560208201518160010155604082015181600201556060820151816003015560808201518160040160006101000a81548160ff02191690831515021790555060a08201518160040160016101000a81548160ff0219169083151502179055509050506004805480600101828161076591906111b6565b9160005260206000209001600060065490919091505550600160065401600681905550610790611113565b5050505050565b6000600480549050905090565b60006001828154811015156107b557fe5b9060005260206000209001549050919050565b6000600180549050905090565b600960009054906101000a900460ff1681565b60006107f26111e2565b6000806000806000806000809054906101000a900473ffffffffffffffffffffffffffffffffffffffff168073ffffffffffffffffffffffffffffffffffffffff163373ffffffffffffffffffffffffffffffffffffffff1614151561085757600080fd5b600560008b81526020019081526020016000209150816000015460026000846000015481526020019081526020016000206000018360010154846002015485600301548660040160009054906101000a900460ff168760040160019054906101000a900460ff16858054600181600116156101000203166002900480601f0160208091040260200160405190810160405280929190818152602001828054600181600116156101000203166002900480156109535780601f1061092857610100808354040283529160200191610953565b820191906000526020600020905b81548152906001019060200180831161093657829003601f168201915b5050505050955098509850985098509850985098505050919395979092949650565b60048181548110151561098457fe5b90600052602060002090016000915090505481565b6109a16111e2565b6109a96111e2565b60006109b36111e2565b6000600260008781526020019081526020016000206000016002600088815260200190815260200160002060010160006002811015156109ef57fe5b60020201600001600260008981526020019081526020016000206001016000600281101515610a1a57fe5b6002020160010154600260008a81526020019081526020016000206001016001600281101515610a4657fe5b60020201600001600260008b81526020019081526020016000206001016001600281101515610a7157fe5b6002020160010154848054600181600116156101000203166002900480601f016020809104026020016040519081016040528092919081815260200182805460018160011615610100020316600290048015610b0e5780601f10610ae357610100808354040283529160200191610b0e565b820191906000526020600020905b815481529060010190602001808311610af157829003601f168201915b50505050509450838054600181600116156101000203166002900480601f016020809104026020016040519081016040528092919081815260200182805460018160011615610100020316600290048015610baa5780601f10610b7f57610100808354040283529160200191610baa565b820191906000526020600020905b815481529060010190602001808311610b8d57829003601f168201915b50505050509350818054600181600116156101000203166002900480601f016020809104026020016040519081016040528092919081815260200182805460018160011615610100020316600290048015610c465780601f10610c1b57610100808354040283529160200191610c46565b820191906000526020600020905b815481529060010190602001808311610c2957829003601f168201915b505050505091509450945094509450945091939590929450565b6000809054906101000a900473ffffffffffffffffffffffffffffffffffffffff1681565b600080600080600080600060056000898152602001908152602001600020905080600001548160010154826002015483600301548460040160009054906101000a900460ff168560040160019054906101000a900460ff169650965096509650965096505091939550919395565b6000600560008481526020019081526020016000209050818015610d2c5750600015158160040160019054906101000a900460ff161515145b8015610d4d5750600015158160040160009054906101000a900460ff161515145b15610d705760018160040160006101000a81548160ff0219169083151502179055505b505050565b600181815481101515610d8457fe5b90600052602060002090016000915090505481565b60085481565b60008060009054906101000a900473ffffffffffffffffffffffffffffffffffffffff168073ffffffffffffffffffffffffffffffffffffffff163373ffffffffffffffffffffffffffffffffffffffff16141515610dfd57600080fd5b600560008581526020019081526020016000209150828015610e345750600115158260040160009054906101000a900460ff161515145b8015610e555750600015158260040160019054906101000a900460ff161515145b15610f0057816001015460026000846000015481526020019081526020016000206001018360020154600281101515610e8a57fe5b6002020160010160008282540392505081905550816001015460026000846000015481526020019081526020016000206001018360030154600281101515610ece57fe5b600202016001016000828254019250508190555060018260040160016101000a81548160ff0219169083151502179055505b50505050565b600081600260008581526020019081526020016000206000019080519060200190610f329291906111f6565b5060408051908101604052806040805190810160405280600781526020017f616e6e75697479000000000000000000000000000000000000000000000000008152508152602001620186a0815250600260008581526020019081526020016000206001016000600281101515610fa457fe5b600202016000820151816000019080519060200190610fc4929190611276565b506020820151816001015590505060408051908101604052806040805190810160405280600981526020017f6c6f6e67207465726d0000000000000000000000000000000000000000000000815250815260200161138881525060026000858152602001908152602001600020600101600160028110151561104257fe5b600202016000820151816000019080519060200190611062929190611276565b5060208201518160010155905050826003836040518082805190602001908083835b6020831015156110a95780518252602082019150602081019050602083039250611084565b6001836020036101000a038019825116818451168082178552505050505050905001915050908152602001604051809103902081905550600180548060010182816110f491906111b6565b9160005260206000209001600085909190915055506001905092915050565b60006001600960009054906101000a900460ff16600281111561113257fe5b019050600181111561114357600090505b80600281111561114f57fe5b600960006101000a81548160ff0219169083600281111561116c57fe5b02179055504260088190555050565b60c060405190810160405280600081526020016000815260200160008152602001600081526020016000151581526020016000151581525090565b8154818355818115116111dd578183600052602060002091820191016111dc91906112f6565b5b505050565b602060405190810160405280600081525090565b828054600181600116156101000203166002900490600052602060002090601f016020900481019282601f1061123757805160ff1916838001178555611265565b82800160010185558215611265579182015b82811115611264578251825591602001919060010190611249565b5b50905061127291906112f6565b5090565b828054600181600116156101000203166002900490600052602060002090601f016020900481019282601f106112b757805160ff19168380011785556112e5565b828001600101855582156112e5579182015b828111156112e45782518255916020019190600101906112c9565b5b5090506112f291906112f6565b5090565b61131891905b808211156113145760008160009055506001016112fc565b5090565b905600a165627a7a723058204ab931f1aa897663d80f9781cdfd1dbcb4476e663b5a0915f4c2505bf1a2c3d60029",
  "source": "pragma solidity ^0.4.4;\n\ncontract someSeriousStuff {\n\n  address public owner;\n  //address[] public clients;\n\n  uint[] public clientArray;\n  mapping(uint=>User) clients;\n\n\n  mapping(string=>uint) someTest;\n\n\n\n  uint[] public requests;\n  mapping(uint=>RequestTransfer) mapReqIdToReq;\n  uint requestId = 1;\n\n  function getRequestCount() returns (uint)\n  {\n  return requests.length;\n}\n\n  function getClientCount() returns (uint)\n  {\n    return clientArray.length;\n  }\n\n  function getSingleClientId(uint id) returns (uint)\n  {\n    return clientArray[id];\n  }\n\n\n  function getSingleRequest(uint requestId) returns(uint, uint, uint, uint, bool, bool)\n  {\n    RequestTransfer localRequest = mapReqIdToReq[requestId];\n    return (localRequest.NylId, localRequest.amount, localRequest.from, localRequest.to, localRequest.approvedByNYL, localRequest.approvedByFidelity);\n  }\n\n  struct Account{\n    string name;\n    uint amount;\n  }\n\n  struct User{\n    string name;\n    //can include multiple properties like policy_holder_number and other user detail\n    Account[2] accounts;\n  }\n\n  struct RequestTransfer{\n    uint NylId;\n    uint amount;\n    uint from;\n    uint to;\n    bool approvedByNYL;\n    bool approvedByFidelity;\n  }\n\n  RequestTransfer[] request;\n\n  function someSeriousStuff(){\n    owner = msg.sender;\n    //clients.push(_client);\n  }\n\n  function registerNewUser(uint NylId ,string _name) returns (bool success) {\n    clients[NylId].name = _name;\n    clients[NylId].accounts[0] = Account({name:'annuity', amount:100000});\n    clients[NylId].accounts[1] = Account({name:'long term', amount:5000});\n    someTest[_name] = NylId;\n    clientArray.push(NylId);\n    return true;\n  }\n\n\n  enum Stages{\n    WaitingApproval,\n    RequestAcceptedByNYL,\n    RequestAcceptedByFidelity\n  }\n  uint public currentStageTime = now;\n\n  Stages public currentStage = Stages.WaitingApproval;\n\n  modifier onlyBy(address _account) {\n    require(msg.sender == _account);\n    _;\n  }\n\n  modifier atStage(Stages _stage) {\n    require(currentStage == _stage);\n    _;\n  }\n\n  function nextStage() internal {\n    uint next = uint(currentStage) + 1;\n    if (next > 1) next = 0;\n    currentStage = Stages(next);\n    currentStageTime = now;\n  }\n\n\n\n  function makeRequest(uint _NylId, uint _amount, uint _from, uint _to)\n  public\n  {\n    require(clients[_NylId].accounts[_from].amount- _amount>=0);\n    RequestTransfer memory localRequest = RequestTransfer({NylId:_NylId,amount:_amount,from:_from,to:_to, approvedByNYL:false, approvedByFidelity:false});\n    mapReqIdToReq[requestId] = localRequest;\n    requests.push(requestId);\n    //wait for approval\n    requestId = requestId + 1;\n    nextStage();\n  }\n\n  function viewUser(uint _NylId) public returns (string, string, uint, string, uint)\n  {\n    return (clients[_NylId].name,clients[_NylId].accounts[0].name,clients[_NylId].accounts[0].amount,clients[_NylId].accounts[1].name,clients[_NylId].accounts[1].amount);\n  }\n\n\n  function viewRequestAtNyl(uint requestId) public onlyBy(owner) returns (uint,string,uint, uint, uint, bool, bool)\n  {\n    RequestTransfer localRequest = mapReqIdToReq[requestId];\n    return (localRequest.NylId, clients[localRequest.NylId].name,localRequest.amount, localRequest.from, localRequest.to, localRequest.approvedByNYL, localRequest.approvedByFidelity);\n  }\n\n  function approveRequestByFidelity(uint requestId, bool approved)\n  public\n  onlyBy(owner)\n  {\n    RequestTransfer localRequest = mapReqIdToReq[requestId];\n    if(approved && localRequest.approvedByNYL==true && localRequest.approvedByFidelity==false)\n    {\n      clients[localRequest.NylId].accounts[localRequest.from].amount -= localRequest.amount;\n      clients[localRequest.NylId].accounts[localRequest.to].amount += localRequest.amount;\n      localRequest.approvedByFidelity = true;\n    }\n    //delete request;\n  }\n\n  function approveRequestByNYL(uint requestId, bool approved)\n  public\n  {\n    RequestTransfer localRequest = mapReqIdToReq[requestId];\n    if(approved && localRequest.approvedByFidelity==false && localRequest.approvedByNYL==false)\n    {\n      localRequest.approvedByNYL=true;\n    }\n  }\n\n}\n",
  "sourcePath": "/Users/chaitanyakaul/Desktop/IntraTransfers/contracts/someSeriousStuff.sol",
  "compiler": {
    "name": "solc",
    "version": "0.4.18+commit.9cf6e910.Emscripten.clang"
  },
  "schemaVersion": "1.0.1",
  "updatedAt": "2018-01-19T00:46:29.021Z"
}