{
  "contractName": "someSeriousStuff",
  "abi": [
    {
      "constant": false,
      "inputs": [
        {
          "name": "_NylId",
          "type": "uint256"
        },
        {
          "name": "_amount",
          "type": "uint256"
        },
        {
          "name": "_from",
          "type": "uint256"
        },
        {
          "name": "_to",
          "type": "uint256"
        }
      ],
      "name": "makeRequest",
      "outputs": [],
      "payable": false,
      "stateMutability": "nonpayable",
      "type": "function"
    },
    {
      "constant": false,
      "inputs": [],
      "name": "getRequestCount",
      "outputs": [
        {
          "name": "",
          "type": "uint256"
        }
      ],
      "payable": false,
      "stateMutability": "nonpayable",
      "type": "function"
    },
    {
      "constant": true,
      "inputs": [],
      "name": "currentStage",
      "outputs": [
        {
          "name": "",
          "type": "uint8"
        }
      ],
      "payable": false,
      "stateMutability": "view",
      "type": "function"
    },
    {
      "constant": false,
      "inputs": [
        {
          "name": "requestId",
          "type": "uint256"
        }
      ],
      "name": "viewRequestAtNyl",
      "outputs": [
        {
          "name": "",
          "type": "uint256"
        },
        {
          "name": "",
          "type": "string"
        },
        {
          "name": "",
          "type": "uint256"
        },
        {
          "name": "",
          "type": "uint256"
        },
        {
          "name": "",
          "type": "uint256"
        },
        {
          "name": "",
          "type": "bool"
        },
        {
          "name": "",
          "type": "bool"
        }
      ],
      "payable": false,
      "stateMutability": "nonpayable",
      "type": "function"
    },
    {
      "constant": true,
      "inputs": [
        {
          "name": "",
          "type": "uint256"
        }
      ],
      "name": "requests",
      "outputs": [
        {
          "name": "",
          "type": "uint256"
        }
      ],
      "payable": false,
      "stateMutability": "view",
      "type": "function"
    },
    {
      "constant": false,
      "inputs": [
        {
          "name": "_NylId",
          "type": "uint256"
        }
      ],
      "name": "viewUser",
      "outputs": [
        {
          "name": "",
          "type": "string"
        },
        {
          "name": "",
          "type": "string"
        },
        {
          "name": "",
          "type": "uint256"
        },
        {
          "name": "",
          "type": "string"
        },
        {
          "name": "",
          "type": "uint256"
        }
      ],
      "payable": false,
      "stateMutability": "nonpayable",
      "type": "function"
    },
    {
      "constant": true,
      "inputs": [],
      "name": "owner",
      "outputs": [
        {
          "name": "",
          "type": "address"
        }
      ],
      "payable": false,
      "stateMutability": "view",
      "type": "function"
    },
    {
      "constant": false,
      "inputs": [
        {
          "name": "requestId",
          "type": "uint256"
        }
      ],
      "name": "getSingleRequest",
      "outputs": [
        {
          "name": "",
          "type": "uint256"
        },
        {
          "name": "",
          "type": "uint256"
        },
        {
          "name": "",
          "type": "uint256"
        },
        {
          "name": "",
          "type": "uint256"
        },
        {
          "name": "",
          "type": "bool"
        },
        {
          "name": "",
          "type": "bool"
        }
      ],
      "payable": false,
      "stateMutability": "nonpayable",
      "type": "function"
    },
    {
      "constant": false,
      "inputs": [
        {
          "name": "requestId",
          "type": "uint256"
        },
        {
          "name": "approved",
          "type": "bool"
        }
      ],
      "name": "approveRequestByNYL",
      "outputs": [],
      "payable": false,
      "stateMutability": "nonpayable",
      "type": "function"
    },
    {
      "constant": true,
      "inputs": [],
      "name": "currentStageTime",
      "outputs": [
        {
          "name": "",
          "type": "uint256"
        }
      ],
      "payable": false,
      "stateMutability": "view",
      "type": "function"
    },
    {
      "constant": false,
      "inputs": [
        {
          "name": "requestId",
          "type": "uint256"
        },
        {
          "name": "approved",
          "type": "bool"
        }
      ],
      "name": "approveRequestByFidelity",
      "outputs": [],
      "payable": false,
      "stateMutability": "nonpayable",
      "type": "function"
    },
    {
      "constant": false,
      "inputs": [
        {
          "name": "NylId",
          "type": "uint256"
        },
        {
          "name": "_name",
          "type": "string"
        }
      ],
      "name": "registerNewUser",
      "outputs": [
        {
          "name": "success",
          "type": "bool"
        }
      ],
      "payable": false,
      "stateMutability": "nonpayable",
      "type": "function"
    },
    {
      "inputs": [],
      "payable": false,
      "stateMutability": "nonpayable",
      "type": "constructor"
    }
  ],
  "bytecode": "0x60606040526001600555426007556000600860006101000a81548160ff0219169083600281111561002c57fe5b0217905550341561003c57600080fd5b336000806101000a81548173ffffffffffffffffffffffffffffffffffffffff021916908373ffffffffffffffffffffffffffffffffffffffff1602179055506112118061008b6000396000f3006060604052600436106100ba576000357c0100000000000000000000000000000000000000000000000000000000900463ffffffff168063157ffefa146100bf5780633fad1834146100fd5780635bf5d54c146101265780636cfcc6021461015d57806381d12c581461022b57806382f27c12146102625780638da5cb5b146103e4578063bdfd66af14610439578063bffca7c51461049b578063dd16df7c146104c9578063f8a6c52d146104f2578063fb24a70314610520575b600080fd5b34156100ca57600080fd5b6100fb600480803590602001909190803590602001909190803590602001909190803590602001909190505061059e565b005b341561010857600080fd5b6101106106df565b6040518082815260200191505060405180910390f35b341561013157600080fd5b6101396106ec565b6040518082600281111561014957fe5b60ff16815260200191505060405180910390f35b341561016857600080fd5b61017e60048080359060200190919050506106ff565b60405180888152602001806020018781526020018681526020018581526020018415151515815260200183151515158152602001828103825288818151815260200191508051906020019080838360005b838110156101ea5780820151818401526020810190506101cf565b50505050905090810190601f1680156102175780820380516001836020036101000a031916815260200191505b509850505050505050505060405180910390f35b341561023657600080fd5b61024c600480803590602001909190505061088c565b6040518082815260200191505060405180910390f35b341561026d57600080fd5b61028360048080359060200190919050506108b0565b60405180806020018060200186815260200180602001858152602001848103845289818151815260200191508051906020019080838360005b838110156102d75780820151818401526020810190506102bc565b50505050905090810190601f1680156103045780820380516001836020036101000a031916815260200191505b50848103835288818151815260200191508051906020019080838360005b8381101561033d578082015181840152602081019050610322565b50505050905090810190601f16801561036a5780820380516001836020036101000a031916815260200191505b50848103825286818151815260200191508051906020019080838360005b838110156103a3578082015181840152602081019050610388565b50505050905090810190601f1680156103d05780820380516001836020036101000a031916815260200191505b509850505050505050505060405180910390f35b34156103ef57600080fd5b6103f7610b77565b604051808273ffffffffffffffffffffffffffffffffffffffff1673ffffffffffffffffffffffffffffffffffffffff16815260200191505060405180910390f35b341561044457600080fd5b61045a6004808035906020019091905050610b9c565b604051808781526020018681526020018581526020018481526020018315151515815260200182151515158152602001965050505050505060405180910390f35b34156104a657600080fd5b6104c760048080359060200190919080351515906020019091905050610c0a565b005b34156104d457600080fd5b6104dc610c8c565b6040518082815260200191505060405180910390f35b34156104fd57600080fd5b61051e60048080359060200190919080351515906020019091905050610c92565b005b341561052b57600080fd5b610584600480803590602001909190803590602001908201803590602001908080601f01602080910402602001604051908101604052809392919081815260200183838082843782019150505050505091905050610df9565b604051808215151515815260200191505060405180910390f35b6105a6611045565b60008460016000888152602001908152602001600020600101856002811015156105cc57fe5b600202016001015403101515156105e257600080fd5b60c060405190810160405280868152602001858152602001848152602001838152602001600015158152602001600015158152509050806004600060055481526020019081526020016000206000820151816000015560208201518160010155604082015181600201556060820151816003015560808201518160040160006101000a81548160ff02191690831515021790555060a08201518160040160016101000a81548160ff021916908315150217905550905050600380548060010182816106ad9190611080565b91600052602060002090016000600554909190915055506001600554016005819055506106d8610fdd565b5050505050565b6000600380549050905090565b600860009054906101000a900460ff1681565b60006107096110ac565b6000806000806000806000809054906101000a900473ffffffffffffffffffffffffffffffffffffffff168073ffffffffffffffffffffffffffffffffffffffff163373ffffffffffffffffffffffffffffffffffffffff1614151561076e57600080fd5b600460008b81526020019081526020016000209150816000015460016000846000015481526020019081526020016000206000018360010154846002015485600301548660040160009054906101000a900460ff168760040160019054906101000a900460ff16858054600181600116156101000203166002900480601f01602080910402602001604051908101604052809291908181526020018280546001816001161561010002031660029004801561086a5780601f1061083f5761010080835404028352916020019161086a565b820191906000526020600020905b81548152906001019060200180831161084d57829003601f168201915b5050505050955098509850985098509850985098505050919395979092949650565b60038181548110151561089b57fe5b90600052602060002090016000915090505481565b6108b86110ac565b6108c06110ac565b60006108ca6110ac565b60006001600087815260200190815260200160002060000160016000888152602001908152602001600020600101600060028110151561090657fe5b6002020160000160016000898152602001908152602001600020600101600060028110151561093157fe5b6002020160010154600160008a8152602001908152602001600020600101600160028110151561095d57fe5b60020201600001600160008b8152602001908152602001600020600101600160028110151561098857fe5b6002020160010154848054600181600116156101000203166002900480601f016020809104026020016040519081016040528092919081815260200182805460018160011615610100020316600290048015610a255780601f106109fa57610100808354040283529160200191610a25565b820191906000526020600020905b815481529060010190602001808311610a0857829003601f168201915b50505050509450838054600181600116156101000203166002900480601f016020809104026020016040519081016040528092919081815260200182805460018160011615610100020316600290048015610ac15780601f10610a9657610100808354040283529160200191610ac1565b820191906000526020600020905b815481529060010190602001808311610aa457829003601f168201915b50505050509350818054600181600116156101000203166002900480601f016020809104026020016040519081016040528092919081815260200182805460018160011615610100020316600290048015610b5d5780601f10610b3257610100808354040283529160200191610b5d565b820191906000526020600020905b815481529060010190602001808311610b4057829003601f168201915b505050505091509450945094509450945091939590929450565b6000809054906101000a900473ffffffffffffffffffffffffffffffffffffffff1681565b600080600080600080600060046000898152602001908152602001600020905080600001548160010154826002015483600301548460040160009054906101000a900460ff168560040160019054906101000a900460ff169650965096509650965096505091939550919395565b6000600460008481526020019081526020016000209050818015610c435750600015158160040160019054906101000a900460ff161515145b8015610c645750600015158160040160009054906101000a900460ff161515145b15610c875760018160040160006101000a81548160ff0219169083151502179055505b505050565b60075481565b60008060009054906101000a900473ffffffffffffffffffffffffffffffffffffffff168073ffffffffffffffffffffffffffffffffffffffff163373ffffffffffffffffffffffffffffffffffffffff16141515610cf057600080fd5b600460008581526020019081526020016000209150828015610d275750600115158260040160009054906101000a900460ff161515145b8015610d485750600015158260040160019054906101000a900460ff161515145b15610df357816001015460016000846000015481526020019081526020016000206001018360020154600281101515610d7d57fe5b6002020160010160008282540392505081905550816001015460016000846000015481526020019081526020016000206001018360030154600281101515610dc157fe5b600202016001016000828254019250508190555060018260040160016101000a81548160ff0219169083151502179055505b50505050565b600081600160008581526020019081526020016000206000019080519060200190610e259291906110c0565b5060408051908101604052806040805190810160405280600781526020017f616e6e75697479000000000000000000000000000000000000000000000000008152508152602001620186a0815250600160008581526020019081526020016000206001016000600281101515610e9757fe5b600202016000820151816000019080519060200190610eb7929190611140565b506020820151816001015590505060408051908101604052806040805190810160405280600981526020017f6c6f6e67207465726d00000000000000000000000000000000000000000000008152508152602001611388815250600160008581526020019081526020016000206001016001600281101515610f3557fe5b600202016000820151816000019080519060200190610f55929190611140565b5060208201518160010155905050826002836040518082805190602001908083835b602083101515610f9c5780518252602082019150602081019050602083039250610f77565b6001836020036101000a0380198251168184511680821785525050505050509050019150509081526020016040518091039020819055506001905092915050565b60006001600860009054906101000a900460ff166002811115610ffc57fe5b019050600181111561100d57600090505b80600281111561101957fe5b600860006101000a81548160ff0219169083600281111561103657fe5b02179055504260078190555050565b60c060405190810160405280600081526020016000815260200160008152602001600081526020016000151581526020016000151581525090565b8154818355818115116110a7578183600052602060002091820191016110a691906111c0565b5b505050565b602060405190810160405280600081525090565b828054600181600116156101000203166002900490600052602060002090601f016020900481019282601f1061110157805160ff191683800117855561112f565b8280016001018555821561112f579182015b8281111561112e578251825591602001919060010190611113565b5b50905061113c91906111c0565b5090565b828054600181600116156101000203166002900490600052602060002090601f016020900481019282601f1061118157805160ff19168380011785556111af565b828001600101855582156111af579182015b828111156111ae578251825591602001919060010190611193565b5b5090506111bc91906111c0565b5090565b6111e291905b808211156111de5760008160009055506001016111c6565b5090565b905600a165627a7a72305820299b89e3aa55b045d7a711b245c263660ff508b18e22ed35c99cee8100f2337e0029",
  "source": "pragma solidity ^0.4.4;\n\ncontract someSeriousStuff {\n\n  address public owner;\n  //address[] public clients;\n  mapping(uint=>User) clients;\n  mapping(string=>uint) someTest;\n\n\n\n  uint[] public requests;\n  mapping(uint=>RequestTransfer) mapReqIdToReq;\n  uint requestId = 1;\n\n  function getRequestCount() returns (uint)\n{\n  return requests.length;\n}\n\n  function getSingleRequest(uint requestId) returns(uint, uint, uint, uint, bool, bool)\n  {\n    RequestTransfer localRequest = mapReqIdToReq[requestId];\n    return (localRequest.NylId, localRequest.amount, localRequest.from, localRequest.to, localRequest.approvedByNYL, localRequest.approvedByFidelity);\n  }\n\n  struct Account{\n    string name;\n    uint amount;\n  }\n\n  struct User{\n    string name;\n    //can include multiple properties like policy_holder_number and other user detail\n    Account[2] accounts;\n  }\n\n  struct RequestTransfer{\n    uint NylId;\n    uint amount;\n    uint from;\n    uint to;\n    bool approvedByNYL;\n    bool approvedByFidelity;\n  }\n\n  RequestTransfer[] request;\n\n  function someSeriousStuff(){\n    owner = msg.sender;\n    //clients.push(_client);\n  }\n\n  function registerNewUser(uint NylId ,string _name) returns (bool success) {\n    clients[NylId].name = _name;\n    clients[NylId].accounts[0] = Account({name:'annuity', amount:100000});\n    clients[NylId].accounts[1] = Account({name:'long term', amount:5000});\n    someTest[_name] = NylId;\n    return true;\n  }\n\n\n  enum Stages{\n    WaitingApproval,\n    RequestAcceptedByNYL,\n    RequestAcceptedByFidelity\n  }\n  uint public currentStageTime = now;\n\n  Stages public currentStage = Stages.WaitingApproval;\n\n  modifier onlyBy(address _account) {\n    require(msg.sender == _account);\n    _;\n  }\n\n  modifier atStage(Stages _stage) {\n    require(currentStage == _stage);\n    _;\n  }\n\n  function nextStage() internal {\n    uint next = uint(currentStage) + 1;\n    if (next > 1) next = 0;\n    currentStage = Stages(next);\n    currentStageTime = now;\n  }\n\n\n\n  function makeRequest(uint _NylId, uint _amount, uint _from, uint _to)\n  public\n  {\n    require(clients[_NylId].accounts[_from].amount- _amount>=0);\n    RequestTransfer memory localRequest = RequestTransfer({NylId:_NylId,amount:_amount,from:_from,to:_to, approvedByNYL:false, approvedByFidelity:false});\n    mapReqIdToReq[requestId] = localRequest;\n    requests.push(requestId);\n    //wait for approval\n    requestId = requestId + 1;\n    nextStage();\n  }\n\n  function viewUser(uint _NylId) public returns (string, string, uint, string, uint)\n  {\n    return (clients[_NylId].name,clients[_NylId].accounts[0].name,clients[_NylId].accounts[0].amount,clients[_NylId].accounts[1].name,clients[_NylId].accounts[1].amount);\n  }\n\n\n  function viewRequestAtNyl(uint requestId) public onlyBy(owner) returns (uint,string,uint, uint, uint, bool, bool)\n  {\n    RequestTransfer localRequest = mapReqIdToReq[requestId];\n    return (localRequest.NylId, clients[localRequest.NylId].name,localRequest.amount, localRequest.from, localRequest.to, localRequest.approvedByNYL, localRequest.approvedByFidelity);\n  }\n\n  function approveRequestByFidelity(uint requestId, bool approved)\n  public\n  onlyBy(owner)\n  {\n    RequestTransfer localRequest = mapReqIdToReq[requestId];\n    if(approved && localRequest.approvedByNYL==true && localRequest.approvedByFidelity==false)\n    {\n      clients[localRequest.NylId].accounts[localRequest.from].amount -= localRequest.amount;\n      clients[localRequest.NylId].accounts[localRequest.to].amount += localRequest.amount;\n      localRequest.approvedByFidelity = true;\n    }\n    //delete request;\n  }\n\n  function approveRequestByNYL(uint requestId, bool approved)\n  public\n  {\n    RequestTransfer localRequest = mapReqIdToReq[requestId];\n    if(approved && localRequest.approvedByFidelity==false && localRequest.approvedByNYL==false)\n    {\n      localRequest.approvedByNYL=true;\n    }\n  }\n\n}\n",
  "sourcePath": "/Users/chaitanyakaul/Desktop/IntraTransfers/contracts/someSeriousStuff.sol",
  "compiler": {
    "name": "solc",
    "version": "0.4.18+commit.9cf6e910.Emscripten.clang"
  },
  "schemaVersion": "1.0.1",
  "updatedAt": "2018-01-17T22:27:39.239Z"
}